:020000040000FA
:0400000076EF00F0A7
:060008003482F6ED04F065
:100018003480D8CF0DF0E8CF0EF0E0CF0FF0D9CF75
:1000280010F0DACF11F01E041F10D8A41EEF00F054
:1000380020EF00F04DEF00F05AEC05F0400E896E0D
:10004800240E086E000E096E800E77EC05F0000E87
:10005800136E000E126E240E1224D96E000E132099
:10006800DA6E000EDF6E124A132A13BE45EF00F057
:10007800135009E1100E125CD8A045EF00F047EFCD
:1000880000F02FEF00F0000E1D6E000E1C6E5BEFEF
:1000980000F078EC00F0000E1F6E010E1E6E000ED0
:1000A800236E000E226E000E216E000E206EF09060
:1000B800030E0C6E080E0B6E770EE82EFED70B2E75
:1000C800FCD70C2EFAD700F0000E896E11C0DAFFAB
:1000D80010C0D9FF0FC0E0FF0EC0E8FF0DC0D8FF69
:1000E8003490100011EF06F022042310D8A47FEFFB
:1000F80000F081EF00F095EF00F0020E20182110BB
:10010800D8A489EF00F08BEF00F095EF00F0240EF3
:100118001C24D96E000E1D20DA6E610EDF6EA4EF6E
:1001280004F0080E22182310D8A49DEF00F09FEFCA
:1001380000F0B3EF00F0040E20182110D8A4A7EFA8
:1001480000F0A9EF00F0B3EF00F0240E1C24D96EE4
:10015800000E1D20DA6E620EDF6EA4EF04F00A0EA8
:1001680022182310D8A4BBEF00F0BDEF00F0D1EFA8
:1001780000F0040E20182110D8A4C5EF00F0C7EF36
:1001880000F0D1EF00F0240E1C24D96E000E1D20C3
:10019800DA6E630EDF6EA4EF04F0040E221823104B
:1001A800D8A4D9EF00F0DBEF00F0EFEF00F0030E7A
:1001B80020182110D8A4E3EF00F0E5EF00F0EFEFEE
:1001C80000F0240E1C24D96E000E1D20DA6E640E79
:1001D800DF6EA4EF04F022502310D8A4F6EF00F04D
:1001E800F8EF00F00BEF01F020042110D8A4FFEF86
:1001F80000F001EF01F00BEF01F0240E1C24D96E82
:10020800000E1D20DA6E650EDF6EA4EF04F0020EFC
:1002180022182310D8A413EF01F015EF01F029EFED
:1002280001F0040E20182110D8A41DEF01F01FEFD3
:1002380001F029EF01F0240E1C24D96E000E1D20B8
:10024800DA6E660EDF6EA4EF04F0060E2218231095
:10025800D8A431EF01F033EF01F047EF01F0030EBE
:1002680020182110D8A43BEF01F03DEF01F047EF33
:1002780001F0240E1C24D96E000E1D20DA6E670EC4
:10028800DF6EA4EF04F022502310D8A44EEF01F043
:1002980050EF01F064EF01F0040E20182110D8A4EB
:1002A80058EF01F05AEF01F064EF01F0240E1C241E
:1002B800D96E000E1D20DA6E680EDF6EA4EF04F012
:1002C80022502310D8A46BEF01F06DEF01F081EFFD
:1002D80001F0020E20182110D8A475EF01F077EF75
:1002E80001F081EF01F0240E1C24D96E000E1D20B0
:1002F800DA6E690EDF6EA4EF04F0070E22182310E1
:10030800D8A489EF01F08BEF01F09FEF01F0040E04
:1003180020182110D8A493EF01F095EF01F09FEF7A
:1003280001F0240E1C24D96E000E1D20DA6E6A0E10
:10033800DF6EA4EF04F0050E22182310D8A4A7EF4F
:1003480001F0A9EF01F0BDEF01F0030E2018211014
:10035800D8A4B1EF01F0B3EF01F0BDEF01F0240E26
:100368001C24D96E000E1D20DA6E6B0EDF6EA4EF12
:1003780004F0040E22182310D8A4C5EF01F0C7EF2B
:1003880001F0DBEF01F0040E20182110D8A4CFEF04
:1003980001F0D1EF01F0DBEF01F0240E1C24D96E3F
:1003A800000E1D20DA6E6C0EDF6EA4EF04F0030E53
:1003B80022182310D8A4E3EF01F0E5EF01F0F9EFDC
:1003C80001F0020E20182110D8A4EDEF01F0EFEF94
:1003D80001F0F9EF01F0240E1C24D96E000E1D2047
:1003E800DA6E6D0EDF6EA4EF04F0020E22182310F1
:1003F800D8A401EF02F003EF02F017EF02F0020EAB
:1004080020182110D8A40BEF02F00DEF02F017EF1F
:1004180002F0240E1C24D96E000E1D20DA6E6E0E1A
:10042800DF6EA4EF04F0070E22182310D8A41FEFE4
:1004380002F021EF02F035EF02F0030E2018211030
:10044800D8A429EF02F02BEF02F035EF02F0240ECA
:100458001C24D96E000E1D20DA6E6F0EDF6EA4EF1D
:1004680004F0060E22182310D8A43DEF02F03FEF47
:1004780002F053EF02F0040E20182110D8A447EF21
:1004880002F049EF02F053EF02F0240E1C24D96E5B
:10049800000E1D20DA6E700EDF6EA4EF04F00D0E54
:1004A80022182310D8A45BEF02F05DEF02F071EF81
:1004B80002F0040E20182110D8A465EF02F067EFAF
:1004C80002F071EF02F0240E1C24D96E000E1D20DC
:1004D800DA6E710EDF6EA4EF04F0020E22182310FC
:1004E800D8A479EF02F07BEF02F08FEF02F0030E51
:1004F80020182110D8A483EF02F085EF02F08FEFC7
:1005080002F0240E1C24D96E000E1D20DA6E720E25
:10051800DF6EA4EF04F022502310D8A496EF02F067
:1005280098EF02F0ACEF02F0030E20182110D8A4C7
:10053800A0EF02F0A2EF02F0ACEF02F0240E1C24B0
:10054800D96E000E1D20DA6E730EDF6EA4EF04F074
:1005580022042310D8A4B3EF02F0B5EF02F0C8EFDD
:1005680002F020042110D8A4BCEF02F0BEEF02F084
:10057800C8EF02F0240E1C24D96E000E1D20DA6E7E
:10058800740EDF6EA4EF04F022042310D8A4CFEF7A
:1005980002F0D1EF02F0E5EF02F0030E201821106F
:1005A800D8A4D9EF02F0DBEF02F0E5EF02F0240E59
:1005B8001C24D96E000E1D20DA6E750EDF6EA4EFB6
:1005C80004F022042310D8A4ECEF02F0EEEF02F0BE
:1005D80002EF03F0040E20182110D8A4F6EF02F061
:1005E800F8EF02F002EF03F0240E1C24D96E000E7F
:1005F8001D20DA6E760EDF6EA4EF04F0030E2218CB
:100608002310D8A40AEF03F00CEF03F020EF03F057
:10061800030E20182110D8A414EF03F016EF03F0EE
:1006280020EF03F0240E1C24D96E000E1D20DA6E74
:10063800770EDF6EA4EF04F0090E22182310D8A459
:1006480028EF03F02AEF03F03EEF03F0040E201822
:100658002110D8A432EF03F034EF03F03EEF03F09B
:10066800240E1C24D96E000E1D20DA6E780EDF6E63
:10067800A4EF04F00B0E22182310D8A446EF03F0C1
:1006880048EF03F05CEF03F0040E20182110D8A403
:1006980050EF03F052EF03F05CEF03F0240E1C243C
:1006A800D96E000E1D20DA6E790EDF6EA4EF04F00D
:1006B8000C0E22182310D8A464EF03F066EF03F0A1
:1006C8007AEF03F0040E20182110D8A46EEF03F07F
:1006D80070EF03F07AEF03F0240E1C24D96E000E9D
:1006E8001D20DA6E7A0EDF6EA4EF04F00F0E2218CA
:1006F8002310D8A482EF03F084EF03F098EF03F0FF
:10070800050E20182110D8A48CEF03F08EEF03F00B
:1007180098EF03F0240E1C24D96E000E1D20DA6E0B
:10072800310EDF6EA4EF04F0070E22182310D8A4B0
:10073800A0EF03F0A2EF03F0B6EF03F0050E2018C8
:100748002110D8A4AAEF03F0ACEF03F0B6EF03F042
:10075800240E1C24D96E000E1D20DA6E320EDF6EB8
:10076800A4EF04F0030E22182310D8A4BEEF03F060
:10077800C0EF03F0D4EF03F0050E20182110D8A421
:10078800C8EF03F0CAEF03F0D4EF03F0240E1C24E3
:10079800D96E000E1D20DA6E330EDF6EA4EF04F062
:1007A80022042310D8A4DBEF03F0DDEF03F0F1EF10
:1007B80003F0050E20182110D8A4E5EF03F0E7EFA9
:1007C80003F0F1EF03F0240E1C24D96E000E1D2057
:1007D800DA6E340EDF6EA4EF04F022502310D8A492
:1007E800F8EF03F0FAEF03F00EEF04F0050E20180F
:1007F8002110D8A402EF04F004EF04F00EEF04F087
:10080800240E1C24D96E000E1D20DA6E300EDF6E09
:10081800A4EF04F0100E22182310D8A416EF04F049
:1008280018EF04F02CEF04F0050E20182110D8A4BE
:1008380020EF04F022EF04F02CEF04F0240E1C2427
:10084800D96E000E1D20DA6E360EDF6EA4EF04F0AE
:10085800180E22182310D8A434EF04F036EF04F051
:100868004AEF04F0050E20182110D8A43EEF04F03A
:1008780040EF04F04AEF04F0240E1C24D96E000E59
:100888001D20DA6E370EDF6EA4EF04F01C0E22185E
:100898002310D8A452EF04F054EF04F068EF04F0EA
:1008A800050E20182110D8A45CEF04F05EEF04F0C8
:1008B80068EF04F0240E1C24D96E000E1D20DA6E99
:1008C800380EDF6EA4EF04F01E0E22182310D8A4F1
:1008D80070EF04F072EF04F086EF04F0050E2018B4
:1008E8002110D8A47AEF04F07CEF04F086EF04F02E
:1008F800240E1C24D96E000E1D20DA6E390EDF6E10
:10090800A4EF04F01F0E22182310D8A48EEF04F0D1
:1009180090EF04F09CEF04F0050E20182110D8A4E5
:1009280098EF04F09AEF04F09CEF04F004EF04F061
:10093800240E1C24D96E000E1D20DA6E450EDF6EC3
:100948001C4A1D2A120093EC05F0DAEC05F0000EA3
:100958001F6E010E1E6E000E1B6E010E1A6E1AC05F
:10096800BEFF1A0E196EF80EE82EFED7192EFCD708
:1009780000D01A4A1B2A1B5008E11A28D8A0C7EF32
:1009880004F0C9EF04F0B3EF04F0820E196EDE0E26
:10099800E82EFED7192EFCD7000E1B6E1A681AC057
:1009A800BEFF1A0E196EF80EE82EFED7192EFCD7C8
:1009B80000D01A06D8A01B061B5007E1020E1A5CCD
:1009C800D8B0E9EF04F0EBEF04F0D3EF04F0820EB7
:1009D800196EDE0EE82EFED7192EFCD7AFEF04F005
:1009E80076EF00F00600000E1F6E000E1E6E020E5F
:1009F800026E040E016EBA0EE82EFED7012EFCD749
:100A0800022EFAD700D08104D8A40DEF05F00FEF1D
:100A180005F01FEF05F0010E22C001F023C002F01F
:100A2800D890013602360110226E0250236E400E15
:100A3800896E26EF05F0D8902234226E2334236E77
:100A48001BEF05F0010E2024206E000E2120216EE0
:100A5800020E026E040E016EBA0EE82EFED7012EAB
:100A6800FCD7022EFAD700D0000E896EF29234928B
:100A78001100000E946E000E956E000E156E190E84
:100A8800146EAEEC05F0380EEAEC05F0060EEAEC52
:100A980005F00C0EEAEC05F0010EEAEC05F0030E89
:100AA800156EE80E146EAEEC05F01200000E946E92
:100AB800000E956E000E046E190E036EC4EC05F060
:100AC800380EF7EC05F0060EF7EC05F00C0EF7EC17
:100AD80005F0010EF7EC05F0030E046EE80E036E48
:100AE800C4EC05F012000A6E0A50F7EC05F086EF28
:100AF80005F008C0D9FF09C0DAFFDF5004EC06F0A2
:100B0800084A092A08C0D9FF09C0DAFFDF50D8A46B
:100B180090EF05F092EF05F07DEF05F01200000E62
:100B2800816E000E8A6E93809382000E926E000E84
:100B3800896E0F0EC16EF80ED56E000ED66ED08E71
:100B4800F28EF28CF288F086F292F090F09C3DECF6
:100B580005F0120015341530166E1430146E16C0D8
:100B680015F0BAEF05F01406D8A0150614041510F0
:100B7800D8A4C1EF05F0C3EF05F0B7EF05F01200F8
:100B880004340430056E0330036E05C004F0D0EF62
:100B980005F00306D8A0040603040410D8A4D7EF70
:100BA80005F0D9EF05F0CDEF05F01200000E946EB8
:100BB8008B947F0ECA6EBD50F00B0C09BD6E100EE3
:100BC800CB6E010EBE6ECF0EBD161200186E18C089
:100BD80083FF82908282000E156E190E146EAEECA1
:100BE80005F082921200076E07C083FF829082820E
:100BF800000E046E190E036EC4EC05F0829212000A
:100C0800076E07C083FF82808282000E046E190E71
:100C1800036EC4EC05F08292120000EE1CF0180E70
:100C2800EE6AE806FDE1349034920001A7EF04F083
:020000040020DA
:08000000FFFFFFFFFFFFFFFF00
:020000040030CA
:0E000000FF081F1EFF8181FF0FC00FE00F40A1
:00000001FF
