:020000040000FA
:0400000076EF00F0A7
:060008003182A7ED04F0B7
:100018003180D8CF25F0E8CF26F0E0CF27F0D9CF30
:1000280028F0DACF29F003040410D8A41EEF00F05A
:1000380020EF00F04DEF00F00BEC05F0400E896E5C
:10004800090E206E000E216E800E28EC05F0000EC1
:100058002B6E000E2A6E090E2A24D96E000E2B2054
:10006800DA6E000EDF6E2A4A2B2A2BBE45EF00F00F
:100078002B5009E1100E2A5CD8A045EF00F047EF9D
:1000880000F02FEF00F0000E026E000E016E5BEF25
:1000980000F078EC00F0000E046E010E036E000E06
:1000A800086E000E076E000E066E000E056EF090CC
:1000B800030E246E080E236E770EE82EFED7232E2D
:1000C800FCD7242EFAD700F0000E896E29C0DAFF7B
:1000D80028C0D9FF27C0E0FF26C0E8FF25C0D8FF09
:1000E80031901000B2EF05F007040810D8A47FEF94
:1000F80000F081EF00F095EF00F0020E05180610F1
:10010800D8A489EF00F08BEF00F095EF00F0090E0E
:100118000124D96E000E0220DA6E610EDF6EA4EFA4
:1001280004F0080E07180810D8A49DEF00F09FEF00
:1001380000F0B3EF00F0040E05180610D8A4A7EFDE
:1001480000F0A9EF00F0B3EF00F0090E0124D96E1A
:10015800000E0220DA6E620EDF6EA4EF04F00A0EC3
:1001680007180810D8A4BBEF00F0BDEF00F0D1EFDE
:1001780000F0040E05180610D8A4C5EF00F0C7EF6C
:1001880000F0D1EF00F0090E0124D96E000E022014
:10019800DA6E630EDF6EA4EF04F0040E0718081081
:1001A800D8A4D9EF00F0DBEF00F0EFEF00F0030E7A
:1001B80005180610D8A4E3EF00F0E5EF00F0EFEF24
:1001C80000F0090E0124D96E000E0220DA6E640ECA
:1001D800DF6EA4EF04F007500810D8A4F6EF00F083
:1001E800F8EF00F00BEF01F005040610D8A4FFEFBC
:1001F80000F001EF01F00BEF01F0090E0124D96EB8
:10020800000E0220DA6E650EDF6EA4EF04F0020E17
:1002180007180810D8A413EF01F015EF01F029EF23
:1002280001F0040E05180610D8A41DEF01F01FEF09
:1002380001F029EF01F0090E0124D96E000E022009
:10024800DA6E660EDF6EA4EF04F0060E07180810CB
:10025800D8A431EF01F033EF01F047EF01F0030EBE
:1002680005180610D8A43BEF01F03DEF01F047EF69
:1002780001F0090E0124D96E000E0220DA6E670E15
:10028800DF6EA4EF04F007500810D8A44EEF01F079
:1002980050EF01F064EF01F0040E05180610D8A421
:1002A80058EF01F05AEF01F064EF01F0090E012454
:1002B800D96E000E0220DA6E680EDF6EA4EF04F02D
:1002C80007500810D8A46BEF01F06DEF01F081EF33
:1002D80001F0020E05180610D8A475EF01F077EFAB
:1002E80001F081EF01F0090E0124D96E000E022001
:1002F800DA6E690EDF6EA4EF04F0070E0718081017
:10030800D8A489EF01F08BEF01F09FEF01F0040E04
:1003180005180610D8A493EF01F095EF01F09FEFB0
:1003280001F0090E0124D96E000E0220DA6E6A0E61
:10033800DF6EA4EF04F0050E07180810D8A4A7EF85
:1003480001F0A9EF01F0BDEF01F0030E051806104A
:10035800D8A4B1EF01F0B3EF01F0BDEF01F0090E41
:100368000124D96E000E0220DA6E6B0EDF6EA4EF48
:1003780004F0040E07180810D8A4C5EF01F0C7EF61
:1003880001F0DBEF01F0040E05180610D8A4CFEF3A
:1003980001F0D1EF01F0DBEF01F0090E0124D96E75
:1003A800000E0220DA6E6C0EDF6EA4EF04F0030E6E
:1003B80007180810D8A4E3EF01F0E5EF01F0F9EF12
:1003C80001F0020E05180610D8A4EDEF01F0EFEFCA
:1003D80001F0F9EF01F0090E0124D96E000E022098
:1003E800DA6E6D0EDF6EA4EF04F0020E0718081027
:1003F800D8A401EF02F003EF02F017EF02F0020EAB
:1004080005180610D8A40BEF02F00DEF02F017EF55
:1004180002F0090E0124D96E000E0220DA6E6E0E6B
:10042800DF6EA4EF04F0070E07180810D8A41FEF1A
:1004380002F021EF02F035EF02F0030E0518061066
:10044800D8A429EF02F02BEF02F035EF02F0090EE5
:100458000124D96E000E0220DA6E6F0EDF6EA4EF53
:1004680004F0060E07180810D8A43DEF02F03FEF7D
:1004780002F053EF02F0040E05180610D8A447EF57
:1004880002F049EF02F053EF02F0090E0124D96E91
:10049800000E0220DA6E700EDF6EA4EF04F00D0E6F
:1004A80007180810D8A45BEF02F05DEF02F071EFB7
:1004B80002F0040E05180610D8A465EF02F067EFE5
:1004C80002F071EF02F0090E0124D96E000E02202D
:1004D800DA6E710EDF6EA4EF04F0020E0718081032
:1004E800D8A479EF02F07BEF02F08FEF02F0030E51
:1004F80005180610D8A483EF02F085EF02F08FEFFD
:1005080002F0090E0124D96E000E0220DA6E720E76
:10051800DF6EA4EF04F007500810D8A496EF02F09D
:1005280098EF02F0ACEF02F0030E05180610D8A4FD
:10053800A0EF02F0A2EF02F0ACEF02F0090E0124E6
:10054800D96E000E0220DA6E730EDF6EA4EF04F08F
:1005580007040810D8A4B3EF02F0B5EF02F0C8EF13
:1005680002F005040610D8A4BCEF02F0BEEF02F0BA
:10057800C8EF02F0090E0124D96E000E0220DA6ECF
:10058800740EDF6EA4EF04F007040810D8A4CFEFB0
:1005980002F0D1EF02F0E5EF02F0030E05180610A5
:1005A800D8A4D9EF02F0DBEF02F0E5EF02F0090E74
:1005B8000124D96E000E0220DA6E750EDF6EA4EFEC
:1005C80004F007040810D8A4ECEF02F0EEEF02F0F4
:1005D80002EF03F0040E05180610D8A4F6EF02F097
:1005E800F8EF02F002EF03F0090E0124D96E000EB5
:1005F8000220DA6E760EDF6EA4EF04F0030E071801
:100608000810D8A40AEF03F00CEF03F020EF03F072
:10061800030E05180610D8A414EF03F016EF03F024
:1006280020EF03F0090E0124D96E000E0220DA6EC5
:10063800770EDF6EA4EF04F0090E07180810D8A48F
:1006480028EF03F02AEF03F03EEF03F0040E05183D
:100658000610D8A432EF03F034EF03F03EEF03F0B6
:10066800090E0124D96E000E0220DA6E780EDF6EB4
:10067800A4EF04F00B0E07180810D8A446EF03F0F7
:1006880048EF03F05CEF03F0040E05180610D8A439
:1006980050EF03F052EF03F05CEF03F0090E012472
:1006A800D96E000E0220DA6E790EDF6EA4EF04F028
:1006B8000C0E07180810D8A464EF03F066EF03F0D7
:1006C8007AEF03F0040E05180610D8A46EEF03F0B5
:1006D80070EF03F07AEF03F0090E0124D96E000ED3
:1006E8000220DA6E7A0EDF6EA4EF04F00F0E071800
:1006F8000810D8A482EF03F084EF03F098EF03F01A
:10070800050E05180610D8A48CEF03F08EEF03F041
:1007180098EF03F0090E0124D96E000E0220DA6E5C
:10072800310EDF6EA4EF04F0070E07180810D8A4E6
:10073800A0EF03F0A2EF03F0B6EF03F0050E0518E3
:100748000610D8A4AAEF03F0ACEF03F0B6EF03F05D
:10075800090E0124D96E000E0220DA6E320EDF6E09
:10076800A4EF04F0030E07180810D8A4BEEF03F096
:10077800C0EF03F0D4EF03F0050E05180610D8A457
:10078800C8EF03F0CAEF03F0D4EF03F0090E012419
:10079800D96E000E0220DA6E330EDF6EA4EF04F07D
:1007A80007040810D8A4DBEF03F0DDEF03F0F1EF46
:1007B80003F0050E05180610D8A4E5EF03F0E7EFDF
:1007C80003F0F1EF03F0090E0124D96E000E0220A8
:1007D800DA6E340EDF6EA4EF04F007500810D8A4C8
:1007E800F8EF03F0FAEF03F00EEF04F0050E05182A
:1007F8000610D8A402EF04F004EF04F00EEF04F0A2
:10080800090E0124D96E000E0220DA6E300EDF6E5A
:10081800A4EF04F0100E07180810D8A416EF04F07F
:1008280018EF04F02CEF04F0050E05180610D8A4F4
:1008380020EF04F022EF04F02CEF04F0090E01245D
:10084800D96E000E0220DA6E360EDF6EA4EF04F0C9
:10085800180E07180810D8A434EF04F036EF04F087
:100868004AEF04F0050E05180610D8A43EEF04F070
:1008780040EF04F04AEF04F0090E0124D96E000E8F
:100888000220DA6E370EDF6EA4EF04F01C0E071894
:100898000810D8A452EF04F054EF04F068EF04F005
:1008A800050E05180610D8A45CEF04F05EEF04F0FE
:1008B80068EF04F0090E0124D96E000E0220DA6EEA
:1008C800380EDF6EA4EF04F01E0E07180810D8A427
:1008D80070EF04F072EF04F086EF04F0050E0518CF
:1008E8000610D8A47AEF04F07CEF04F086EF04F049
:1008F800090E0124D96E000E0220DA6E390EDF6E61
:10090800A4EF04F01F0E07180810D8A48EEF04F007
:1009180090EF04F09CEF04F0050E05180610D8A41B
:1009280098EF04F09AEF04F09CEF04F004EF04F061
:10093800090E0124D96E000E0220DA6E450EDF6E14
:10094800014A022A12000600000E046E000E036E11
:10095800020E1A6E040E196EBA0EE82EFED7192E64
:10096800FCD71A2EFAD700D08104D8A4BEEF04F021
:10097800C0EF04F0D0EF04F0010E07C019F008C072
:100988001AF0D89019361A361910076E1A50086ED0
:10099800400E896ED7EF04F0D8900734076E0834FC
:1009A800086ECCEF04F0010E0524056E000E06203B
:1009B800066E020E1A6E040E196EBA0EE82EFED7D7
:1009C800192EFCD71A2EFAD700D0000E896EF29293
:1009D80031921100000E946E000E956E000E2D6E71
:1009E800190E2C6E5FEC05F0380E8BEC05F0060E38
:1009F8008BEC05F00C0E8BEC05F0010E8BEC05F082
:100A0800030E2D6EE80E2C6E5FEC05F01200000E42
:100A1800946E000E956E000E1C6E190E1B6E75EC12
:100A280005F0380E98EC05F0060E98EC05F00C0E63
:100A380098EC05F0010E98EC05F0030E1C6EE80E1C
:100A48001B6E75EC05F01200226E225098EC05F032
:100A580037EF05F020C0D9FF21C0DAFFDF50A5EC41
:100A680005F0204A212A20C0D9FF21C0DAFFDF5033
:100A7800D8A441EF05F043EF05F02EEF05F0120082
:100A8800000E816E000E8A6E93809382000E926E25
:100A9800000E896E0F0EC16EF80ED56E000ED66E62
:100AA800D08EF28EF28CF288F086F292F090F09C62
:100AB800EEEC04F012002D342D302E6E2C302C6EFE
:100AC8002EC02DF06BEF05F02C06D8A02D062C04B7
:100AD8002D10D8A472EF05F074EF05F068EF05F05B
:100AE80012001C341C301D6E1B301B6E1DC01CF008
:100AF80081EF05F01B06D8A01C061B041C10D8A407
:100B080088EF05F08AEF05F07EEF05F01200306EF1
:100B180030C083FF82908282000E2D6E190E2C6EDB
:100B28005FEC05F0829212001F6E1FC083FF829057
:100B38008282000E1C6E190E1B6E75EC05F08292F7
:100B480012001F6E1FC083FF82808282000E1C6EFF
:100B5800190E1B6E75EC05F08292120000EE01F082
:100B6800180EEE6AE806FDE1319031920001BDEF02
:100B780005F044EC05F0000E046E010E036EC3EFA1
:060B880005F076EF00F01D
:020000040020DA
:08000000FFFFFFFFFFFFFFFF00
:020000040030CA
:0E000000FF081F1EFF8181FF0FC00FE00F40A1
:00000001FF
